{
  "contractName": "Raffle",
  "abi": [
    {
      "inputs": [],
      "stateMutability": "nonpayable",
      "type": "constructor"
    },
    {
      "anonymous": false,
      "inputs": [
        {
          "indexed": true,
          "internalType": "address",
          "name": "previousOwner",
          "type": "address"
        },
        {
          "indexed": true,
          "internalType": "address",
          "name": "newOwner",
          "type": "address"
        }
      ],
      "name": "OwnershipTransferred",
      "type": "event"
    },
    {
      "anonymous": false,
      "inputs": [
        {
          "indexed": false,
          "internalType": "uint256",
          "name": "timestamp",
          "type": "uint256"
        },
        {
          "indexed": false,
          "internalType": "bool",
          "name": "win",
          "type": "bool"
        },
        {
          "indexed": false,
          "internalType": "string",
          "name": "name",
          "type": "string"
        },
        {
          "indexed": false,
          "internalType": "uint256",
          "name": "amount",
          "type": "uint256"
        }
      ],
      "name": "RaffleEvent",
      "type": "event"
    },
    {
      "stateMutability": "payable",
      "type": "fallback",
      "payable": true
    },
    {
      "inputs": [],
      "name": "gameFee",
      "outputs": [
        {
          "internalType": "uint256",
          "name": "",
          "type": "uint256"
        }
      ],
      "stateMutability": "view",
      "type": "function",
      "constant": true
    },
    {
      "inputs": [],
      "name": "joiningFee",
      "outputs": [
        {
          "internalType": "uint256",
          "name": "",
          "type": "uint256"
        }
      ],
      "stateMutability": "view",
      "type": "function",
      "constant": true
    },
    {
      "inputs": [],
      "name": "maxPlayers",
      "outputs": [
        {
          "internalType": "uint256",
          "name": "",
          "type": "uint256"
        }
      ],
      "stateMutability": "view",
      "type": "function",
      "constant": true
    },
    {
      "inputs": [],
      "name": "owner",
      "outputs": [
        {
          "internalType": "address",
          "name": "",
          "type": "address"
        }
      ],
      "stateMutability": "view",
      "type": "function",
      "constant": true
    },
    {
      "inputs": [],
      "name": "pause",
      "outputs": [
        {
          "internalType": "bool",
          "name": "",
          "type": "bool"
        }
      ],
      "stateMutability": "view",
      "type": "function",
      "constant": true
    },
    {
      "inputs": [],
      "name": "renounceOwnership",
      "outputs": [],
      "stateMutability": "nonpayable",
      "type": "function"
    },
    {
      "inputs": [],
      "name": "scheduledPause",
      "outputs": [
        {
          "internalType": "bool",
          "name": "",
          "type": "bool"
        }
      ],
      "stateMutability": "view",
      "type": "function",
      "constant": true
    },
    {
      "inputs": [
        {
          "internalType": "address",
          "name": "newOwner",
          "type": "address"
        }
      ],
      "name": "transferOwnership",
      "outputs": [],
      "stateMutability": "nonpayable",
      "type": "function"
    },
    {
      "stateMutability": "payable",
      "type": "receive",
      "payable": true
    },
    {
      "inputs": [
        {
          "internalType": "uint256",
          "name": "newMaxPlayers",
          "type": "uint256"
        }
      ],
      "name": "changeMaxPlayers",
      "outputs": [],
      "stateMutability": "nonpayable",
      "type": "function"
    },
    {
      "inputs": [
        {
          "internalType": "uint256",
          "name": "newJoiningFee",
          "type": "uint256"
        }
      ],
      "name": "changeJoiningFee",
      "outputs": [],
      "stateMutability": "nonpayable",
      "type": "function"
    },
    {
      "inputs": [
        {
          "internalType": "uint256",
          "name": "newGameFee",
          "type": "uint256"
        }
      ],
      "name": "changeGameFee",
      "outputs": [],
      "stateMutability": "nonpayable",
      "type": "function"
    },
    {
      "inputs": [],
      "name": "unpauseGame",
      "outputs": [],
      "stateMutability": "nonpayable",
      "type": "function"
    },
    {
      "inputs": [],
      "name": "schedulePause",
      "outputs": [],
      "stateMutability": "nonpayable",
      "type": "function"
    },
    {
      "inputs": [],
      "name": "getCurrentPrize",
      "outputs": [
        {
          "internalType": "uint256",
          "name": "",
          "type": "uint256"
        }
      ],
      "stateMutability": "view",
      "type": "function",
      "constant": true
    },
    {
      "inputs": [
        {
          "internalType": "string",
          "name": "_playerName",
          "type": "string"
        }
      ],
      "name": "enter",
      "outputs": [],
      "stateMutability": "payable",
      "type": "function",
      "payable": true
    },
    {
      "inputs": [],
      "name": "participants",
      "outputs": [
        {
          "internalType": "uint256",
          "name": "",
          "type": "uint256"
        }
      ],
      "stateMutability": "view",
      "type": "function",
      "constant": true
    },
    {
      "inputs": [
        {
          "internalType": "address",
          "name": "to",
          "type": "address"
        }
      ],
      "name": "withdraw",
      "outputs": [],
      "stateMutability": "payable",
      "type": "function",
      "payable": true
    }
  ],
  "bytecode": "0x608060405234801561001057600080fd5b5061002d61002261008660201b60201c565b61008e60201b60201c565b6005600381905550670de0b6b3a7640000600481905550600580819055506000600660006101000a81548160ff0219169083151502179055506000600660016101000a81548160ff021916908315150217905550610152565b600033905090565b60008060009054906101000a900473ffffffffffffffffffffffffffffffffffffffff169050816000806101000a81548173ffffffffffffffffffffffffffffffffffffffff021916908373ffffffffffffffffffffffffffffffffffffffff1602179055508173ffffffffffffffffffffffffffffffffffffffff168173ffffffffffffffffffffffffffffffffffffffff167f8be0079c531659141344cd1fd0a4f28419497f9722a3daafe3b4186f6b6457e060405160405180910390a35050565b611dbc806101616000396000f3fe6080604052600436106101025760003560e01c8063715018a61161009557806395dc7ae01161006457806395dc7ae0146102d25780639d4ff8ad146102e9578063ea777eec14610305578063f2fde38b14610330578063ff16dc171461035957610109565b8063715018a61461023c57806380cc33ae146102535780638456cb591461027c5780638da5cb5b146102a757610109565b806351cff8d9116100d157806351cff8d9146101a157806360653c44146101bd5780636c4470fb146101e65780636eeeaaa51461021157610109565b806325877bc51461010b578063305243d914610134578063403384331461014b5780634c2412a21461017657610109565b3661010957005b005b34801561011757600080fd5b50610132600480360381019061012d919061120b565b610384565b005b34801561014057600080fd5b5061014961040a565b005b34801561015757600080fd5b50610160610508565b60405161016d9190611247565b60405180910390f35b34801561018257600080fd5b5061018b61054d565b6040516101989190611247565b60405180910390f35b6101bb60048036038101906101b691906112c0565b610553565b005b3480156101c957600080fd5b506101e460048036038101906101df919061120b565b61061f565b005b3480156101f257600080fd5b506101fb6106a5565b6040516102089190611247565b60405180910390f35b34801561021d57600080fd5b506102266106b2565b6040516102339190611247565b60405180910390f35b34801561024857600080fd5b506102516106b8565b005b34801561025f57600080fd5b5061027a6004803603810190610275919061120b565b610740565b005b34801561028857600080fd5b506102916107c6565b60405161029e9190611308565b60405180910390f35b3480156102b357600080fd5b506102bc6107d9565b6040516102c99190611332565b60405180910390f35b3480156102de57600080fd5b506102e7610802565b005b61030360048036038101906102fe9190611493565b6108b7565b005b34801561031157600080fd5b5061031a610c53565b6040516103279190611247565b60405180910390f35b34801561033c57600080fd5b50610357600480360381019061035291906112c0565b610c59565b005b34801561036557600080fd5b5061036e610d51565b60405161037b9190611308565b60405180910390f35b61038c610d64565b73ffffffffffffffffffffffffffffffffffffffff166103aa6107d9565b73ffffffffffffffffffffffffffffffffffffffff1614610400576040517f08c379a00000000000000000000000000000000000000000000000000000000081526004016103f790611539565b60405180910390fd5b8060048190555050565b610412610d64565b73ffffffffffffffffffffffffffffffffffffffff166104306107d9565b73ffffffffffffffffffffffffffffffffffffffff1614610486576040517f08c379a000000000000000000000000000000000000000000000000000000000815260040161047d90611539565b60405180910390fd5b60011515600660009054906101000a900460ff161515146104dc576040517f08c379a00000000000000000000000000000000000000000000000000000000081526004016104d3906115a5565b60405180910390fd5b600660009054906101000a900460ff1615600660006101000a81548160ff021916908315150217905550565b60006105486105376005546105296064600254610d6c90919063ffffffff16565b610d8290919063ffffffff16565b600254610d9890919063ffffffff16565b905090565b60035481565b61055b610d64565b73ffffffffffffffffffffffffffffffffffffffff166105796107d9565b73ffffffffffffffffffffffffffffffffffffffff16146105cf576040517f08c379a00000000000000000000000000000000000000000000000000000000081526004016105c690611539565b60405180910390fd5b60004790508173ffffffffffffffffffffffffffffffffffffffff166108fc829081150290604051600060405180830381858888f1935050505015801561061a573d6000803e3d6000fd5b505050565b610627610d64565b73ffffffffffffffffffffffffffffffffffffffff166106456107d9565b73ffffffffffffffffffffffffffffffffffffffff161461069b576040517f08c379a000000000000000000000000000000000000000000000000000000000815260040161069290611539565b60405180910390fd5b8060038190555050565b6000600180549050905090565b60045481565b6106c0610d64565b73ffffffffffffffffffffffffffffffffffffffff166106de6107d9565b73ffffffffffffffffffffffffffffffffffffffff1614610734576040517f08c379a000000000000000000000000000000000000000000000000000000000815260040161072b90611539565b60405180910390fd5b61073e6000610dae565b565b610748610d64565b73ffffffffffffffffffffffffffffffffffffffff166107666107d9565b73ffffffffffffffffffffffffffffffffffffffff16146107bc576040517f08c379a00000000000000000000000000000000000000000000000000000000081526004016107b390611539565b60405180910390fd5b8060058190555050565b600660009054906101000a900460ff1681565b60008060009054906101000a900473ffffffffffffffffffffffffffffffffffffffff16905090565b61080a610d64565b73ffffffffffffffffffffffffffffffffffffffff166108286107d9565b73ffffffffffffffffffffffffffffffffffffffff161461087e576040517f08c379a000000000000000000000000000000000000000000000000000000000815260040161087590611539565b60405180910390fd5b6000600180549050141561089957610894610e72565b6108b5565b6001600660016101000a81548160ff0219169083151502179055505b565b60001515600660009054906101000a900460ff1615151461090d576040517f08c379a000000000000000000000000000000000000000000000000000000000815260040161090490611611565b60405180910390fd5b600454341461091d600454610eb9565b60405160200161092d91906116f7565b6040516020818303038152906040529061097d576040517f08c379a00000000000000000000000000000000000000000000000000000000081526004016109749190611770565b60405180910390fd5b50600060405180604001604052803373ffffffffffffffffffffffffffffffffffffffff168152602001838152509050600181908060018154018082558091505060019003906000526020600020906002020160009091909190915060008201518160000160006101000a81548173ffffffffffffffffffffffffffffffffffffffff021916908373ffffffffffffffffffffffffffffffffffffffff1602179055506020820151816001019080519060200190610a3c92919061106c565b5050503460026000828254610a5191906117c1565b925050819055507f3631ff970b0357da1749524ebb7bb0d4c1f4b5b7f0ae7ba792e1f145a90f9169426000846000604051610a8f949392919061185c565b60405180910390a1600354610aa26106a5565b10610c4f576000610ab161101a565b9050600060018281548110610ac957610ac86118a8565b5b906000526020600020906002020160000160009054906101000a900473ffffffffffffffffffffffffffffffffffffffff1690506000610b07610508565b905060008273ffffffffffffffffffffffffffffffffffffffff1682604051610b2f906118fd565b60006040518083038185875af1925050503d8060008114610b6c576040519150601f19603f3d011682016040523d82523d6000602084013e610b71565b606091505b5050905080610bb5576040517f08c379a0000000000000000000000000000000000000000000000000000000008152600401610bac90611984565b60405180910390fd5b7f3631ff970b0357da1749524ebb7bb0d4c1f4b5b7f0ae7ba792e1f145a90f9169426001808781548110610bec57610beb6118a8565b5b906000526020600020906002020160010185604051610c0e9493929190611a9a565b60405180910390a16000600281905550600660019054906101000a900460ff1615610c3c57610c3b610e72565b5b60016000610c4a91906110f2565b505050505b5050565b60055481565b610c61610d64565b73ffffffffffffffffffffffffffffffffffffffff16610c7f6107d9565b73ffffffffffffffffffffffffffffffffffffffff1614610cd5576040517f08c379a0000000000000000000000000000000000000000000000000000000008152600401610ccc90611539565b60405180910390fd5b600073ffffffffffffffffffffffffffffffffffffffff168173ffffffffffffffffffffffffffffffffffffffff161415610d45576040517f08c379a0000000000000000000000000000000000000000000000000000000008152600401610d3c90611b58565b60405180910390fd5b610d4e81610dae565b50565b600660019054906101000a900460ff1681565b600033905090565b60008183610d7a9190611ba7565b905092915050565b60008183610d909190611bd8565b905092915050565b60008183610da69190611c32565b905092915050565b60008060009054906101000a900473ffffffffffffffffffffffffffffffffffffffff169050816000806101000a81548173ffffffffffffffffffffffffffffffffffffffff021916908373ffffffffffffffffffffffffffffffffffffffff1602179055508173ffffffffffffffffffffffffffffffffffffffff168173ffffffffffffffffffffffffffffffffffffffff167f8be0079c531659141344cd1fd0a4f28419497f9722a3daafe3b4186f6b6457e060405160405180910390a35050565b600660009054906101000a900460ff1615600660006101000a81548160ff0219169083151502179055506000600660016101000a81548160ff021916908315150217905550565b60606000821415610f01576040518060400160405280600181526020017f30000000000000000000000000000000000000000000000000000000000000008152509050611015565b600082905060005b60008214610f33578080610f1c90611c66565b915050600a82610f2c9190611ba7565b9150610f09565b60008167ffffffffffffffff811115610f4f57610f4e611368565b5b6040519080825280601f01601f191660200182016040528015610f815781602001600182028036833780820191505090505b5090505b6000851461100e57600182610f9a9190611c32565b9150600a85610fa99190611caf565b6030610fb591906117c1565b60f81b818381518110610fcb57610fca6118a8565b5b60200101907effffffffffffffffffffffffffffffffffffffffffffffffffffffffffffff1916908160001a905350600a856110079190611ba7565b9450610f85565b8093505050505b919050565b60008044423360405160200161103293929190611d49565b6040516020818303038152906040528051906020012060001c905060006110576106a5565b826110629190611caf565b9050809250505090565b828054611078906119d3565b90600052602060002090601f01602090048101928261109a57600085556110e1565b82601f106110b357805160ff19168380011785556110e1565b828001600101855582156110e1579182015b828111156110e05782518255916020019190600101906110c5565b5b5090506110ee9190611116565b5090565b50805460008255600202906000526020600020908101906111139190611133565b50565b5b8082111561112f576000816000905550600101611117565b5090565b5b8082111561117d57600080820160006101000a81549073ffffffffffffffffffffffffffffffffffffffff02191690556001820160006111749190611181565b50600201611134565b5090565b50805461118d906119d3565b6000825580601f1061119f57506111be565b601f0160209004906000526020600020908101906111bd9190611116565b5b50565b6000604051905090565b600080fd5b600080fd5b6000819050919050565b6111e8816111d5565b81146111f357600080fd5b50565b600081359050611205816111df565b92915050565b600060208284031215611221576112206111cb565b5b600061122f848285016111f6565b91505092915050565b611241816111d5565b82525050565b600060208201905061125c6000830184611238565b92915050565b600073ffffffffffffffffffffffffffffffffffffffff82169050919050565b600061128d82611262565b9050919050565b61129d81611282565b81146112a857600080fd5b50565b6000813590506112ba81611294565b92915050565b6000602082840312156112d6576112d56111cb565b5b60006112e4848285016112ab565b91505092915050565b60008115159050919050565b611302816112ed565b82525050565b600060208201905061131d60008301846112f9565b92915050565b61132c81611282565b82525050565b60006020820190506113476000830184611323565b92915050565b600080fd5b600080fd5b6000601f19601f8301169050919050565b7f4e487b7100000000000000000000000000000000000000000000000000000000600052604160045260246000fd5b6113a082611357565b810181811067ffffffffffffffff821117156113bf576113be611368565b5b80604052505050565b60006113d26111c1565b90506113de8282611397565b919050565b600067ffffffffffffffff8211156113fe576113fd611368565b5b61140782611357565b9050602081019050919050565b82818337600083830152505050565b6000611436611431846113e3565b6113c8565b90508281526020810184848401111561145257611451611352565b5b61145d848285611414565b509392505050565b600082601f83011261147a5761147961134d565b5b813561148a848260208601611423565b91505092915050565b6000602082840312156114a9576114a86111cb565b5b600082013567ffffffffffffffff8111156114c7576114c66111d0565b5b6114d384828501611465565b91505092915050565b600082825260208201905092915050565b7f4f776e61626c653a2063616c6c6572206973206e6f7420746865206f776e6572600082015250565b60006115236020836114dc565b915061152e826114ed565b602082019050919050565b6000602082019050818103600083015261155281611516565b9050919050565b7f526166666c6520697320616c7265616479207061757365642e00000000000000600082015250565b600061158f6019836114dc565b915061159a82611559565b602082019050919050565b600060208201905081810360008301526115be81611582565b9050919050565b7f526166666c652069732063757272656e746c79207061757365642e0000000000600082015250565b60006115fb601b836114dc565b9150611606826115c5565b602082019050919050565b6000602082019050818103600083015261162a816115ee565b9050919050565b7f4a6f696e696e6720666565206973200000000000000000000000000000000000815250565b600081519050919050565b600081905092915050565b60005b8381101561168b578082015181840152602081019050611670565b8381111561169a576000848401525b50505050565b60006116ab82611657565b6116b58185611662565b93506116c581856020860161166d565b80840191505092915050565b7f207765692e000000000000000000000000000000000000000000000000000000815250565b600061170282611631565b600f8201915061171282846116a0565b915061171d826116d1565b60058201915081905092915050565b600081519050919050565b60006117428261172c565b61174c81856114dc565b935061175c81856020860161166d565b61176581611357565b840191505092915050565b6000602082019050818103600083015261178a8184611737565b905092915050565b7f4e487b7100000000000000000000000000000000000000000000000000000000600052601160045260246000fd5b60006117cc826111d5565b91506117d7836111d5565b9250827fffffffffffffffffffffffffffffffffffffffffffffffffffffffffffffffff0382111561180c5761180b611792565b5b828201905092915050565b6000819050919050565b6000819050919050565b600061184661184161183c84611817565b611821565b6111d5565b9050919050565b6118568161182b565b82525050565b60006080820190506118716000830187611238565b61187e60208301866112f9565b81810360408301526118908185611737565b905061189f606083018461184d565b95945050505050565b7f4e487b7100000000000000000000000000000000000000000000000000000000600052603260045260246000fd5b50565b60006118e7600083611662565b91506118f2826118d7565b600082019050919050565b6000611908826118da565b9150819050919050565b7f4661696c656420746f207769746864726177206d6f6e65792066726f6d20746860008201527f6520636f6e746163740000000000000000000000000000000000000000000000602082015250565b600061196e6029836114dc565b915061197982611912565b604082019050919050565b6000602082019050818103600083015261199d81611961565b9050919050565b7f4e487b7100000000000000000000000000000000000000000000000000000000600052602260045260246000fd5b600060028204905060018216806119eb57607f821691505b602082108114156119ff576119fe6119a4565b5b50919050565b60008190508160005260206000209050919050565b60008154611a27816119d3565b611a3181866114dc565b94506001821660008114611a4c5760018114611a5e57611a91565b60ff1983168652602086019350611a91565b611a6785611a05565b60005b83811015611a8957815481890152600182019150602081019050611a6a565b808801955050505b50505092915050565b6000608082019050611aaf6000830187611238565b611abc60208301866112f9565b8181036040830152611ace8185611a1a565b9050611add6060830184611238565b95945050505050565b7f4f776e61626c653a206e6577206f776e657220697320746865207a65726f206160008201527f6464726573730000000000000000000000000000000000000000000000000000602082015250565b6000611b426026836114dc565b9150611b4d82611ae6565b604082019050919050565b60006020820190508181036000830152611b7181611b35565b9050919050565b7f4e487b7100000000000000000000000000000000000000000000000000000000600052601260045260246000fd5b6000611bb2826111d5565b9150611bbd836111d5565b925082611bcd57611bcc611b78565b5b828204905092915050565b6000611be3826111d5565b9150611bee836111d5565b9250817fffffffffffffffffffffffffffffffffffffffffffffffffffffffffffffffff0483118215151615611c2757611c26611792565b5b828202905092915050565b6000611c3d826111d5565b9150611c48836111d5565b925082821015611c5b57611c5a611792565b5b828203905092915050565b6000611c71826111d5565b91507fffffffffffffffffffffffffffffffffffffffffffffffffffffffffffffffff821415611ca457611ca3611792565b5b600182019050919050565b6000611cba826111d5565b9150611cc5836111d5565b925082611cd557611cd4611b78565b5b828206905092915050565b6000819050919050565b611cfb611cf6826111d5565b611ce0565b82525050565b60008160601b9050919050565b6000611d1982611d01565b9050919050565b6000611d2b82611d0e565b9050919050565b611d43611d3e82611282565b611d20565b82525050565b6000611d558286611cea565b602082019150611d658285611cea565b602082019150611d758284611d32565b60148201915081905094935050505056fea26469706673582212201baaebe6a473c13efbf006123b0ef4128d5a87d0f73a7006c2b900ac85348a5e64736f6c634300080c0033",
  "immutableReferences": {},
  "source": "// SPDX-License-Identifier: MIT\npragma solidity >=0.7.0 <0.9.0;\n\nimport \"@openzeppelin/contracts/utils/math/SafeMath.sol\";\nimport \"@openzeppelin/contracts/utils/Strings.sol\";\nimport \"@openzeppelin/contracts/access/Ownable.sol\";\n\ncontract Raffle is Ownable {\n    using SafeMath for uint256;\n    using Strings for uint256;\n    Player[] entries;\n    uint256 private prize;\n    uint256 public maxPlayers;\n    uint256 public joiningFee;\n    uint256 public gameFee;\n    bool public pause;\n    bool public scheduledPause;\n\n    event RaffleEvent(uint256 timestamp, bool win, string name, uint256 amount);\n\n    modifier raffleNotPaused() {\n        require(pause == false, \"Raffle is currently paused.\");\n        _;\n    }\n\n    struct Player {\n        address payable playerAddress;\n        string playerName;\n    }\n\n    constructor() {\n        maxPlayers = 5;\n        joiningFee = 1000000000000000000 wei;\n        gameFee = 5;\n        pause = false;\n        scheduledPause = false;\n    }\n\n    function changeMaxPlayers(uint256 newMaxPlayers) public onlyOwner {\n        maxPlayers = newMaxPlayers;\n    }\n\n    function changeJoiningFee(uint256 newJoiningFee) public onlyOwner {\n        joiningFee = newJoiningFee;\n    }\n\n    function changeGameFee(uint256 newGameFee) public onlyOwner {\n        gameFee = newGameFee;\n    }\n\n    function pauseGame() internal {\n        pause = !pause;\n        scheduledPause = false;\n    }\n\n    function unpauseGame() public onlyOwner {\n        require(pause == true, \"Raffle is already paused.\");\n        pause = !pause;\n    }\n\n    function schedulePause() public onlyOwner {\n        if (entries.length == 0) {\n            pauseGame();\n        } else {\n            scheduledPause = true;\n        }\n    }\n\n    function pickWinner() private view returns(uint256) {\n        uint256 random = uint256(keccak256(abi.encodePacked(block.difficulty, block.timestamp, msg.sender)));\n        uint256 index = random % participants();\n        return index;\n    }\n\n    function getCurrentPrize() public view returns(uint256) {\n        return prize.sub(prize.div(100).mul(gameFee));\n    }\n\n    function enter(string memory _playerName) public payable raffleNotPaused {\n        require(msg.value == joiningFee, string(bytes.concat(\"Joining fee is \", bytes(Strings.toString(joiningFee)), \" wei.\")));\n\n        Player memory newPlayer = Player(payable(msg.sender), _playerName);\n        entries.push(newPlayer);\n        prize += msg.value;\n        emit RaffleEvent(block.timestamp, false, _playerName, 0);\n\n        if (participants() >= maxPlayers) {\n            uint256 winnerIndex = pickWinner();\n            address winner = entries[winnerIndex].playerAddress;\n            uint256 finalPrize = getCurrentPrize();\n\n            (bool success, ) = (winner).call{value: finalPrize}(\"\"); \n            require(success, \"Failed to withdraw money from the contact\");\n            emit RaffleEvent(block.timestamp, true, entries[winnerIndex].playerName, finalPrize);\n            prize = 0;\n            if (scheduledPause) {\n                pauseGame();\n            }\n            delete entries;\n        }\n    }\n\n    function participants() public view returns(uint256) {\n        return entries.length;\n    }\n\n    function withdraw(address to) external payable onlyOwner {\n        uint256 balance = address(this).balance;\n        payable(to).transfer(balance);\n    }\n\n    fallback() external payable {}\n\n    receive() external payable {}\n}\n",
  "sourcePath": "/var/www/html/solidity-raffle/contracts/Raffle.sol",
  "compiler": {
    "name": "solc",
    "version": "0.8.12+commit.f00d7308.Emscripten.clang"
  },
  "schemaVersion": "3.4.6",
  "updatedAt": "2022-04-12T17:57:33.194Z",
  "networkType": "ethereum",
  "devdoc": {
    "kind": "dev",
    "methods": {
      "owner()": {
        "details": "Returns the address of the current owner."
      },
      "renounceOwnership()": {
        "details": "Leaves the contract without owner. It will not be possible to call `onlyOwner` functions anymore. Can only be called by the current owner. NOTE: Renouncing ownership will leave the contract without an owner, thereby removing any functionality that is only available to the owner."
      },
      "transferOwnership(address)": {
        "details": "Transfers ownership of the contract to a new account (`newOwner`). Can only be called by the current owner."
      }
    },
    "version": 1
  },
  "userdoc": {
    "kind": "user",
    "methods": {},
    "version": 1
  }
}