{
  "contractName": "Raffle",
  "abi": [
    {
      "inputs": [],
      "stateMutability": "nonpayable",
      "type": "constructor"
    },
    {
      "anonymous": false,
      "inputs": [
        {
          "indexed": true,
          "internalType": "address",
          "name": "previousOwner",
          "type": "address"
        },
        {
          "indexed": true,
          "internalType": "address",
          "name": "newOwner",
          "type": "address"
        }
      ],
      "name": "OwnershipTransferred",
      "type": "event"
    },
    {
      "anonymous": false,
      "inputs": [
        {
          "indexed": false,
          "internalType": "uint256",
          "name": "timestamp",
          "type": "uint256"
        },
        {
          "indexed": false,
          "internalType": "string",
          "name": "playerName",
          "type": "string"
        }
      ],
      "name": "PlayerEntered",
      "type": "event"
    },
    {
      "anonymous": false,
      "inputs": [
        {
          "indexed": false,
          "internalType": "uint256",
          "name": "timestamp",
          "type": "uint256"
        },
        {
          "indexed": false,
          "internalType": "string",
          "name": "winner",
          "type": "string"
        },
        {
          "indexed": false,
          "internalType": "uint256",
          "name": "amount",
          "type": "uint256"
        }
      ],
      "name": "RaffleEnded",
      "type": "event"
    },
    {
      "stateMutability": "payable",
      "type": "fallback",
      "payable": true
    },
    {
      "inputs": [],
      "name": "gameFee",
      "outputs": [
        {
          "internalType": "uint256",
          "name": "",
          "type": "uint256"
        }
      ],
      "stateMutability": "view",
      "type": "function",
      "constant": true
    },
    {
      "inputs": [],
      "name": "joiningFee",
      "outputs": [
        {
          "internalType": "uint256",
          "name": "",
          "type": "uint256"
        }
      ],
      "stateMutability": "view",
      "type": "function",
      "constant": true
    },
    {
      "inputs": [],
      "name": "maxPlayers",
      "outputs": [
        {
          "internalType": "uint256",
          "name": "",
          "type": "uint256"
        }
      ],
      "stateMutability": "view",
      "type": "function",
      "constant": true
    },
    {
      "inputs": [],
      "name": "owner",
      "outputs": [
        {
          "internalType": "address",
          "name": "",
          "type": "address"
        }
      ],
      "stateMutability": "view",
      "type": "function",
      "constant": true
    },
    {
      "inputs": [],
      "name": "renounceOwnership",
      "outputs": [],
      "stateMutability": "nonpayable",
      "type": "function"
    },
    {
      "inputs": [
        {
          "internalType": "address",
          "name": "newOwner",
          "type": "address"
        }
      ],
      "name": "transferOwnership",
      "outputs": [],
      "stateMutability": "nonpayable",
      "type": "function"
    },
    {
      "stateMutability": "payable",
      "type": "receive",
      "payable": true
    },
    {
      "inputs": [
        {
          "internalType": "uint256",
          "name": "newMaxPlayers",
          "type": "uint256"
        }
      ],
      "name": "changeMaxPlayers",
      "outputs": [],
      "stateMutability": "nonpayable",
      "type": "function"
    },
    {
      "inputs": [
        {
          "internalType": "uint256",
          "name": "newJoiningFee",
          "type": "uint256"
        }
      ],
      "name": "changeJoiningFee",
      "outputs": [],
      "stateMutability": "nonpayable",
      "type": "function"
    },
    {
      "inputs": [
        {
          "internalType": "uint256",
          "name": "newGameFee",
          "type": "uint256"
        }
      ],
      "name": "changeGameFee",
      "outputs": [],
      "stateMutability": "nonpayable",
      "type": "function"
    },
    {
      "inputs": [],
      "name": "getCurrentPrize",
      "outputs": [
        {
          "internalType": "uint256",
          "name": "",
          "type": "uint256"
        }
      ],
      "stateMutability": "view",
      "type": "function",
      "constant": true
    },
    {
      "inputs": [
        {
          "internalType": "string",
          "name": "_playerName",
          "type": "string"
        }
      ],
      "name": "enter",
      "outputs": [],
      "stateMutability": "payable",
      "type": "function",
      "payable": true
    },
    {
      "inputs": [],
      "name": "participants",
      "outputs": [
        {
          "internalType": "uint256",
          "name": "",
          "type": "uint256"
        }
      ],
      "stateMutability": "view",
      "type": "function",
      "constant": true
    },
    {
      "inputs": [
        {
          "internalType": "address",
          "name": "to",
          "type": "address"
        }
      ],
      "name": "withdraw",
      "outputs": [],
      "stateMutability": "payable",
      "type": "function",
      "payable": true
    }
  ],
  "bytecode": "0x608060405234801561001057600080fd5b5061002d61002261005060201b60201c565b61005860201b60201c565b6005600381905550670de0b6b3a76400006004819055506005808190555061011c565b600033905090565b60008060009054906101000a900473ffffffffffffffffffffffffffffffffffffffff169050816000806101000a81548173ffffffffffffffffffffffffffffffffffffffff021916908373ffffffffffffffffffffffffffffffffffffffff1602179055508173ffffffffffffffffffffffffffffffffffffffff168173ffffffffffffffffffffffffffffffffffffffff167f8be0079c531659141344cd1fd0a4f28419497f9722a3daafe3b4186f6b6457e060405160405180910390a35050565b6119ba8061012b6000396000f3fe6080604052600436106100c65760003560e01c80636eeeaaa51161007f5780638da5cb5b116100595780638da5cb5b146102295780639d4ff8ad14610254578063ea777eec14610270578063f2fde38b1461029b576100cd565b80636eeeaaa5146101be578063715018a6146101e957806380cc33ae14610200576100cd565b806325877bc5146100cf57806340338433146100f85780634c2412a21461012357806351cff8d91461014e57806360653c441461016a5780636c4470fb14610193576100cd565b366100cd57005b005b3480156100db57600080fd5b506100f660048036038101906100f19190610ef6565b6102c4565b005b34801561010457600080fd5b5061010d61034a565b60405161011a9190610f32565b60405180910390f35b34801561012f57600080fd5b5061013861038f565b6040516101459190610f32565b60405180910390f35b61016860048036038101906101639190610fab565b610395565b005b34801561017657600080fd5b50610191600480360381019061018c9190610ef6565b610461565b005b34801561019f57600080fd5b506101a86104e7565b6040516101b59190610f32565b60405180910390f35b3480156101ca57600080fd5b506101d36104f4565b6040516101e09190610f32565b60405180910390f35b3480156101f557600080fd5b506101fe6104fa565b005b34801561020c57600080fd5b5061022760048036038101906102229190610ef6565b610582565b005b34801561023557600080fd5b5061023e610608565b60405161024b9190610fe7565b60405180910390f35b61026e60048036038101906102699190611148565b610631565b005b34801561027c57600080fd5b50610285610970565b6040516102929190610f32565b60405180910390f35b3480156102a757600080fd5b506102c260048036038101906102bd9190610fab565b610976565b005b6102cc610a6e565b73ffffffffffffffffffffffffffffffffffffffff166102ea610608565b73ffffffffffffffffffffffffffffffffffffffff1614610340576040517f08c379a0000000000000000000000000000000000000000000000000000000008152600401610337906111ee565b60405180910390fd5b8060048190555050565b600061038a61037960055461036b6064600254610a7690919063ffffffff16565b610a8c90919063ffffffff16565b600254610aa290919063ffffffff16565b905090565b60035481565b61039d610a6e565b73ffffffffffffffffffffffffffffffffffffffff166103bb610608565b73ffffffffffffffffffffffffffffffffffffffff1614610411576040517f08c379a0000000000000000000000000000000000000000000000000000000008152600401610408906111ee565b60405180910390fd5b60004790508173ffffffffffffffffffffffffffffffffffffffff166108fc829081150290604051600060405180830381858888f1935050505015801561045c573d6000803e3d6000fd5b505050565b610469610a6e565b73ffffffffffffffffffffffffffffffffffffffff16610487610608565b73ffffffffffffffffffffffffffffffffffffffff16146104dd576040517f08c379a00000000000000000000000000000000000000000000000000000000081526004016104d4906111ee565b60405180910390fd5b8060038190555050565b6000600180549050905090565b60045481565b610502610a6e565b73ffffffffffffffffffffffffffffffffffffffff16610520610608565b73ffffffffffffffffffffffffffffffffffffffff1614610576576040517f08c379a000000000000000000000000000000000000000000000000000000000815260040161056d906111ee565b60405180910390fd5b6105806000610ab8565b565b61058a610a6e565b73ffffffffffffffffffffffffffffffffffffffff166105a8610608565b73ffffffffffffffffffffffffffffffffffffffff16146105fe576040517f08c379a00000000000000000000000000000000000000000000000000000000081526004016105f5906111ee565b60405180910390fd5b8060058190555050565b60008060009054906101000a900473ffffffffffffffffffffffffffffffffffffffff16905090565b6004543414610641600454610b7c565b60405160200161065191906112d4565b604051602081830303815290604052906106a1576040517f08c379a0000000000000000000000000000000000000000000000000000000008152600401610698919061134d565b60405180910390fd5b50600060405180604001604052803373ffffffffffffffffffffffffffffffffffffffff168152602001838152509050600181908060018154018082558091505060019003906000526020600020906002020160009091909190915060008201518160000160006101000a81548173ffffffffffffffffffffffffffffffffffffffff021916908373ffffffffffffffffffffffffffffffffffffffff1602179055506020820151816001019080519060200190610760929190610d57565b5050503460026000828254610775919061139e565b925050819055507ff5cb4ad482aa150d9e4585fceefa2bb1b20004332d194160b03500cdafc9c84642836040516020016107af919061141a565b6040516020818303038152906040526040516107cc929190611440565b60405180910390a16003546107df6104e7565b1061096c5760006107ee610d05565b905060006001828154811061080657610805611470565b5b906000526020600020906002020160000160009054906101000a900473ffffffffffffffffffffffffffffffffffffffff169050600061084461034a565b905060008273ffffffffffffffffffffffffffffffffffffffff168260405161086c906114c5565b60006040518083038185875af1925050503d80600081146108a9576040519150601f19603f3d011682016040523d82523d6000602084013e6108ae565b606091505b50509050806108f2576040517f08c379a00000000000000000000000000000000000000000000000000000000081526004016108e99061154c565b60405180910390fd5b7f51f0fe61ad43dd119e9a4557c999c9ed421b3dfcaa9cd63488272e82afe9617d426001868154811061092857610927611470565b5b90600052602060002090600202016001018460405161094993929190611662565b60405180910390a16000600281905550600160006109679190610ddd565b505050505b5050565b60055481565b61097e610a6e565b73ffffffffffffffffffffffffffffffffffffffff1661099c610608565b73ffffffffffffffffffffffffffffffffffffffff16146109f2576040517f08c379a00000000000000000000000000000000000000000000000000000000081526004016109e9906111ee565b60405180910390fd5b600073ffffffffffffffffffffffffffffffffffffffff168173ffffffffffffffffffffffffffffffffffffffff161415610a62576040517f08c379a0000000000000000000000000000000000000000000000000000000008152600401610a5990611712565b60405180910390fd5b610a6b81610ab8565b50565b600033905090565b60008183610a849190611761565b905092915050565b60008183610a9a9190611792565b905092915050565b60008183610ab091906117ec565b905092915050565b60008060009054906101000a900473ffffffffffffffffffffffffffffffffffffffff169050816000806101000a81548173ffffffffffffffffffffffffffffffffffffffff021916908373ffffffffffffffffffffffffffffffffffffffff1602179055508173ffffffffffffffffffffffffffffffffffffffff168173ffffffffffffffffffffffffffffffffffffffff167f8be0079c531659141344cd1fd0a4f28419497f9722a3daafe3b4186f6b6457e060405160405180910390a35050565b60606000821415610bc4576040518060400160405280600181526020017f30000000000000000000000000000000000000000000000000000000000000008152509050610d00565b600082905060005b60008214610bf6578080610bdf90611820565b915050600a82610bef9190611761565b9150610bcc565b60008167ffffffffffffffff811115610c1257610c1161101d565b5b6040519080825280601f01601f191660200182016040528015610c445781602001600182028036833780820191505090505b50905060008290505b60008614610cf857600181610c6291906117ec565b90506000600a8088610c749190611761565b610c7e9190611792565b87610c8991906117ec565b6030610c959190611876565b905060008160f81b905080848481518110610cb357610cb2611470565b5b60200101907effffffffffffffffffffffffffffffffffffffffffffffffffffffffffffff1916908160001a905350600a88610cef9190611761565b97505050610c4d565b819450505050505b919050565b600080444233604051602001610d1d93929190611916565b6040516020818303038152906040528051906020012060001c90506000610d426104e7565b82610d4d9190611953565b9050809250505090565b828054610d639061159b565b90600052602060002090601f016020900481019282610d855760008555610dcc565b82601f10610d9e57805160ff1916838001178555610dcc565b82800160010185558215610dcc579182015b82811115610dcb578251825591602001919060010190610db0565b5b509050610dd99190610e01565b5090565b5080546000825560020290600052602060002090810190610dfe9190610e1e565b50565b5b80821115610e1a576000816000905550600101610e02565b5090565b5b80821115610e6857600080820160006101000a81549073ffffffffffffffffffffffffffffffffffffffff0219169055600182016000610e5f9190610e6c565b50600201610e1f565b5090565b508054610e789061159b565b6000825580601f10610e8a5750610ea9565b601f016020900490600052602060002090810190610ea89190610e01565b5b50565b6000604051905090565b600080fd5b600080fd5b6000819050919050565b610ed381610ec0565b8114610ede57600080fd5b50565b600081359050610ef081610eca565b92915050565b600060208284031215610f0c57610f0b610eb6565b5b6000610f1a84828501610ee1565b91505092915050565b610f2c81610ec0565b82525050565b6000602082019050610f476000830184610f23565b92915050565b600073ffffffffffffffffffffffffffffffffffffffff82169050919050565b6000610f7882610f4d565b9050919050565b610f8881610f6d565b8114610f9357600080fd5b50565b600081359050610fa581610f7f565b92915050565b600060208284031215610fc157610fc0610eb6565b5b6000610fcf84828501610f96565b91505092915050565b610fe181610f6d565b82525050565b6000602082019050610ffc6000830184610fd8565b92915050565b600080fd5b600080fd5b6000601f19601f8301169050919050565b7f4e487b7100000000000000000000000000000000000000000000000000000000600052604160045260246000fd5b6110558261100c565b810181811067ffffffffffffffff821117156110745761107361101d565b5b80604052505050565b6000611087610eac565b9050611093828261104c565b919050565b600067ffffffffffffffff8211156110b3576110b261101d565b5b6110bc8261100c565b9050602081019050919050565b82818337600083830152505050565b60006110eb6110e684611098565b61107d565b90508281526020810184848401111561110757611106611007565b5b6111128482856110c9565b509392505050565b600082601f83011261112f5761112e611002565b5b813561113f8482602086016110d8565b91505092915050565b60006020828403121561115e5761115d610eb6565b5b600082013567ffffffffffffffff81111561117c5761117b610ebb565b5b6111888482850161111a565b91505092915050565b600082825260208201905092915050565b7f4f776e61626c653a2063616c6c6572206973206e6f7420746865206f776e6572600082015250565b60006111d8602083611191565b91506111e3826111a2565b602082019050919050565b60006020820190508181036000830152611207816111cb565b9050919050565b7f4a6f696e696e6720666565206973200000000000000000000000000000000000815250565b600081519050919050565b600081905092915050565b60005b8381101561126857808201518184015260208101905061124d565b83811115611277576000848401525b50505050565b600061128882611234565b611292818561123f565b93506112a281856020860161124a565b80840191505092915050565b7f2077656900000000000000000000000000000000000000000000000000000000815250565b60006112df8261120e565b600f820191506112ef828461127d565b91506112fa826112ae565b60048201915081905092915050565b600081519050919050565b600061131f82611309565b6113298185611191565b935061133981856020860161124a565b6113428161100c565b840191505092915050565b600060208201905081810360008301526113678184611314565b905092915050565b7f4e487b7100000000000000000000000000000000000000000000000000000000600052601160045260246000fd5b60006113a982610ec0565b91506113b483610ec0565b9250827fffffffffffffffffffffffffffffffffffffffffffffffffffffffffffffffff038211156113e9576113e861136f565b5b828201905092915050565b7f2068617320656e74657265642074686520726166666c652e0000000000000000815250565b6000611426828461127d565b9150611431826113f4565b60188201915081905092915050565b60006040820190506114556000830185610f23565b81810360208301526114678184611314565b90509392505050565b7f4e487b7100000000000000000000000000000000000000000000000000000000600052603260045260246000fd5b50565b60006114af60008361123f565b91506114ba8261149f565b600082019050919050565b60006114d0826114a2565b9150819050919050565b7f4661696c656420746f207769746864726177206d6f6e65792066726f6d20746860008201527f6520636f6e746163740000000000000000000000000000000000000000000000602082015250565b6000611536602983611191565b9150611541826114da565b604082019050919050565b6000602082019050818103600083015261156581611529565b9050919050565b7f4e487b7100000000000000000000000000000000000000000000000000000000600052602260045260246000fd5b600060028204905060018216806115b357607f821691505b602082108114156115c7576115c661156c565b5b50919050565b60008190508160005260206000209050919050565b600081546115ef8161159b565b6115f98186611191565b94506001821660008114611614576001811461162657611659565b60ff1983168652602086019350611659565b61162f856115cd565b60005b8381101561165157815481890152600182019150602081019050611632565b808801955050505b50505092915050565b60006060820190506116776000830186610f23565b818103602083015261168981856115e2565b90506116986040830184610f23565b949350505050565b7f4f776e61626c653a206e6577206f776e657220697320746865207a65726f206160008201527f6464726573730000000000000000000000000000000000000000000000000000602082015250565b60006116fc602683611191565b9150611707826116a0565b604082019050919050565b6000602082019050818103600083015261172b816116ef565b9050919050565b7f4e487b7100000000000000000000000000000000000000000000000000000000600052601260045260246000fd5b600061176c82610ec0565b915061177783610ec0565b92508261178757611786611732565b5b828204905092915050565b600061179d82610ec0565b91506117a883610ec0565b9250817fffffffffffffffffffffffffffffffffffffffffffffffffffffffffffffffff04831182151516156117e1576117e061136f565b5b828202905092915050565b60006117f782610ec0565b915061180283610ec0565b9250828210156118155761181461136f565b5b828203905092915050565b600061182b82610ec0565b91507fffffffffffffffffffffffffffffffffffffffffffffffffffffffffffffffff82141561185e5761185d61136f565b5b600182019050919050565b600060ff82169050919050565b600061188182611869565b915061188c83611869565b92508260ff038211156118a2576118a161136f565b5b828201905092915050565b6000819050919050565b6118c86118c382610ec0565b6118ad565b82525050565b60008160601b9050919050565b60006118e6826118ce565b9050919050565b60006118f8826118db565b9050919050565b61191061190b82610f6d565b6118ed565b82525050565b600061192282866118b7565b60208201915061193282856118b7565b60208201915061194282846118ff565b601482019150819050949350505050565b600061195e82610ec0565b915061196983610ec0565b92508261197957611978611732565b5b82820690509291505056fea2646970667358221220e277ef345df1c5f1accfffa3796eb9aec6dd4c38dfa4efe67b60fcc4898b5d3a64736f6c634300080c0033",
  "immutableReferences": {},
  "source": "// SPDX-License-Identifier: MIT\npragma solidity >=0.7.0 <0.9.0;\n\nimport \"@openzeppelin/contracts/utils/math/SafeMath.sol\";\nimport \"@openzeppelin/contracts/access/Ownable.sol\";\n\nlibrary Strings {\n    function toString(uint256 value) internal pure returns (string memory) {\n        if (value == 0) {\n            return \"0\";\n        }\n        uint i = value;\n        uint len;\n        while (i != 0) {\n            len++;\n            i /= 10;\n        }\n        bytes memory bstr = new bytes(len);\n        uint j = len;\n        while (value != 0) {\n            j = j - 1;\n            uint8 temp = (48 + uint8(value - value / 10 * 10));\n            bytes1 b1 = bytes1(temp);\n            bstr[j] = b1;\n            value /= 10;\n        }\n        return string(bstr);\n    }\n}\n\ncontract Raffle is Ownable {\n    using SafeMath for uint256;\n    using Strings for uint256;\n    Player[] entries;\n    uint256 private prize;\n    uint256 public maxPlayers;\n    uint256 public joiningFee;\n    uint256 public gameFee;\n\n    event RaffleEnded(uint256 timestamp, string winner, uint256 amount);\n    event PlayerEntered(uint256 timestamp, string playerName);\n\n    struct Player {\n        address payable playerAddress;\n        string playerName;\n    }\n\n    constructor() {\n        maxPlayers = 5;\n        joiningFee = 1000000000000000000 wei;\n        gameFee = 5;\n    }\n\n    function changeMaxPlayers(uint256 newMaxPlayers) public onlyOwner {\n        maxPlayers = newMaxPlayers;\n    }\n\n    function changeJoiningFee(uint256 newJoiningFee) public onlyOwner {\n        joiningFee = newJoiningFee;\n    }\n\n    function changeGameFee(uint256 newGameFee) public onlyOwner {\n        gameFee = newGameFee;\n    }\n\n    function pickWinner() private view returns(uint256) {\n        uint256 random = uint256(keccak256(abi.encodePacked(block.difficulty, block.timestamp, msg.sender)));\n        uint256 index = random % participants();\n        return index;\n    }\n\n    function getCurrentPrize() public view returns(uint256) {\n        return prize.sub(prize.div(100).mul(gameFee));\n    }\n\n    function enter(string memory _playerName) public payable {\n        require(msg.value == joiningFee, string(bytes.concat(\"Joining fee is \", bytes(joiningFee.toString()), \" wei\")));\n\n        Player memory newPlayer = Player(payable(msg.sender), _playerName);\n        entries.push(newPlayer);\n        prize += msg.value;\n        emit PlayerEntered(block.timestamp, string(bytes.concat(bytes(_playerName), \" has entered the raffle.\")));\n\n        if (participants() >= maxPlayers) {\n            uint256 winnerIndex = pickWinner();\n            address winner = entries[winnerIndex].playerAddress;\n            uint256 finalPrize = getCurrentPrize();\n\n            (bool success, ) = (winner).call{value: finalPrize}(\"\"); \n            require(success, \"Failed to withdraw money from the contact\");\n\n            emit RaffleEnded(block.timestamp, entries[winnerIndex].playerName, finalPrize);\n            prize = 0;\n            delete entries;\n        }\n    }\n\n    function participants() public view returns(uint256) {\n        return entries.length;\n    }\n\n    function withdraw(address to) external payable onlyOwner {\n        uint256 balance = address(this).balance;\n        payable(to).transfer(balance);\n    }\n\n    fallback() external payable {}\n\n    receive() external payable {}\n}\n",
  "sourcePath": "/var/www/html/truffle-react-box-raffle/contracts/Raffle.sol",
  "compiler": {
    "name": "solc",
    "version": "0.8.12+commit.f00d7308.Emscripten.clang"
  },
  "schemaVersion": "3.4.6",
  "updatedAt": "2022-04-01T18:29:13.535Z",
  "networkType": "ethereum",
  "devdoc": {
    "kind": "dev",
    "methods": {
      "owner()": {
        "details": "Returns the address of the current owner."
      },
      "renounceOwnership()": {
        "details": "Leaves the contract without owner. It will not be possible to call `onlyOwner` functions anymore. Can only be called by the current owner. NOTE: Renouncing ownership will leave the contract without an owner, thereby removing any functionality that is only available to the owner."
      },
      "transferOwnership(address)": {
        "details": "Transfers ownership of the contract to a new account (`newOwner`). Can only be called by the current owner."
      }
    },
    "version": 1
  },
  "userdoc": {
    "kind": "user",
    "methods": {},
    "version": 1
  }
}