{
  "contractName": "Raffle",
  "abi": [
    {
      "inputs": [],
      "stateMutability": "nonpayable",
      "type": "constructor"
    },
    {
      "anonymous": false,
      "inputs": [
        {
          "indexed": true,
          "internalType": "address",
          "name": "previousOwner",
          "type": "address"
        },
        {
          "indexed": true,
          "internalType": "address",
          "name": "newOwner",
          "type": "address"
        }
      ],
      "name": "OwnershipTransferred",
      "type": "event"
    },
    {
      "anonymous": false,
      "inputs": [
        {
          "indexed": false,
          "internalType": "uint256",
          "name": "timestamp",
          "type": "uint256"
        },
        {
          "indexed": false,
          "internalType": "string",
          "name": "playerName",
          "type": "string"
        }
      ],
      "name": "PlayerEntered",
      "type": "event"
    },
    {
      "anonymous": false,
      "inputs": [
        {
          "indexed": false,
          "internalType": "uint256",
          "name": "timestamp",
          "type": "uint256"
        },
        {
          "indexed": false,
          "internalType": "string",
          "name": "winner",
          "type": "string"
        },
        {
          "indexed": false,
          "internalType": "uint256",
          "name": "amount",
          "type": "uint256"
        }
      ],
      "name": "RaffleEnded",
      "type": "event"
    },
    {
      "stateMutability": "payable",
      "type": "fallback",
      "payable": true
    },
    {
      "inputs": [],
      "name": "gameFee",
      "outputs": [
        {
          "internalType": "uint256",
          "name": "",
          "type": "uint256"
        }
      ],
      "stateMutability": "view",
      "type": "function",
      "constant": true
    },
    {
      "inputs": [],
      "name": "joiningFee",
      "outputs": [
        {
          "internalType": "uint256",
          "name": "",
          "type": "uint256"
        }
      ],
      "stateMutability": "view",
      "type": "function",
      "constant": true
    },
    {
      "inputs": [],
      "name": "maxPlayers",
      "outputs": [
        {
          "internalType": "uint256",
          "name": "",
          "type": "uint256"
        }
      ],
      "stateMutability": "view",
      "type": "function",
      "constant": true
    },
    {
      "inputs": [],
      "name": "owner",
      "outputs": [
        {
          "internalType": "address",
          "name": "",
          "type": "address"
        }
      ],
      "stateMutability": "view",
      "type": "function",
      "constant": true
    },
    {
      "inputs": [],
      "name": "renounceOwnership",
      "outputs": [],
      "stateMutability": "nonpayable",
      "type": "function"
    },
    {
      "inputs": [
        {
          "internalType": "address",
          "name": "newOwner",
          "type": "address"
        }
      ],
      "name": "transferOwnership",
      "outputs": [],
      "stateMutability": "nonpayable",
      "type": "function"
    },
    {
      "stateMutability": "payable",
      "type": "receive",
      "payable": true
    },
    {
      "inputs": [
        {
          "internalType": "uint256",
          "name": "newMaxPlayers",
          "type": "uint256"
        }
      ],
      "name": "changeMaxPlayers",
      "outputs": [],
      "stateMutability": "nonpayable",
      "type": "function"
    },
    {
      "inputs": [
        {
          "internalType": "uint256",
          "name": "newJoiningFee",
          "type": "uint256"
        }
      ],
      "name": "changeJoiningFee",
      "outputs": [],
      "stateMutability": "nonpayable",
      "type": "function"
    },
    {
      "inputs": [
        {
          "internalType": "uint256",
          "name": "newGameFee",
          "type": "uint256"
        }
      ],
      "name": "changeGameFee",
      "outputs": [],
      "stateMutability": "nonpayable",
      "type": "function"
    },
    {
      "inputs": [],
      "name": "getCurrentPrize",
      "outputs": [
        {
          "internalType": "uint256",
          "name": "",
          "type": "uint256"
        }
      ],
      "stateMutability": "view",
      "type": "function",
      "constant": true
    },
    {
      "inputs": [
        {
          "internalType": "string",
          "name": "_playerName",
          "type": "string"
        }
      ],
      "name": "enter",
      "outputs": [],
      "stateMutability": "payable",
      "type": "function",
      "payable": true
    },
    {
      "inputs": [],
      "name": "participants",
      "outputs": [
        {
          "internalType": "uint256",
          "name": "",
          "type": "uint256"
        }
      ],
      "stateMutability": "view",
      "type": "function",
      "constant": true
    },
    {
      "inputs": [
        {
          "internalType": "address",
          "name": "to",
          "type": "address"
        }
      ],
      "name": "withdraw",
      "outputs": [],
      "stateMutability": "payable",
      "type": "function",
      "payable": true
    }
  ],
  "bytecode": "0x608060405234801561001057600080fd5b5061002d61002261005060201b60201c565b61005860201b60201c565b6005600381905550670de0b6b3a76400006004819055506005808190555061011c565b600033905090565b60008060009054906101000a900473ffffffffffffffffffffffffffffffffffffffff169050816000806101000a81548173ffffffffffffffffffffffffffffffffffffffff021916908373ffffffffffffffffffffffffffffffffffffffff1602179055508173ffffffffffffffffffffffffffffffffffffffff168173ffffffffffffffffffffffffffffffffffffffff167f8be0079c531659141344cd1fd0a4f28419497f9722a3daafe3b4186f6b6457e060405160405180910390a35050565b61194e8061012b6000396000f3fe6080604052600436106100c65760003560e01c80636eeeaaa51161007f5780638da5cb5b116100595780638da5cb5b146102295780639d4ff8ad14610254578063ea777eec14610270578063f2fde38b1461029b576100cd565b80636eeeaaa5146101be578063715018a6146101e957806380cc33ae14610200576100cd565b806325877bc5146100cf57806340338433146100f85780634c2412a21461012357806351cff8d91461014e57806360653c441461016a5780636c4470fb14610193576100cd565b366100cd57005b005b3480156100db57600080fd5b506100f660048036038101906100f19190610ece565b6102c4565b005b34801561010457600080fd5b5061010d61034a565b60405161011a9190610f0a565b60405180910390f35b34801561012f57600080fd5b5061013861038f565b6040516101459190610f0a565b60405180910390f35b61016860048036038101906101639190610f83565b610395565b005b34801561017657600080fd5b50610191600480360381019061018c9190610ece565b610461565b005b34801561019f57600080fd5b506101a86104e7565b6040516101b59190610f0a565b60405180910390f35b3480156101ca57600080fd5b506101d36104f4565b6040516101e09190610f0a565b60405180910390f35b3480156101f557600080fd5b506101fe6104fa565b005b34801561020c57600080fd5b5061022760048036038101906102229190610ece565b610582565b005b34801561023557600080fd5b5061023e610608565b60405161024b9190610fbf565b60405180910390f35b61026e60048036038101906102699190611120565b610631565b005b34801561027c57600080fd5b50610285610970565b6040516102929190610f0a565b60405180910390f35b3480156102a757600080fd5b506102c260048036038101906102bd9190610f83565b610976565b005b6102cc610a6e565b73ffffffffffffffffffffffffffffffffffffffff166102ea610608565b73ffffffffffffffffffffffffffffffffffffffff1614610340576040517f08c379a0000000000000000000000000000000000000000000000000000000008152600401610337906111c6565b60405180910390fd5b8060048190555050565b600061038a61037960055461036b6064600254610a7690919063ffffffff16565b610a8c90919063ffffffff16565b600254610aa290919063ffffffff16565b905090565b60035481565b61039d610a6e565b73ffffffffffffffffffffffffffffffffffffffff166103bb610608565b73ffffffffffffffffffffffffffffffffffffffff1614610411576040517f08c379a0000000000000000000000000000000000000000000000000000000008152600401610408906111c6565b60405180910390fd5b60004790508173ffffffffffffffffffffffffffffffffffffffff166108fc829081150290604051600060405180830381858888f1935050505015801561045c573d6000803e3d6000fd5b505050565b610469610a6e565b73ffffffffffffffffffffffffffffffffffffffff16610487610608565b73ffffffffffffffffffffffffffffffffffffffff16146104dd576040517f08c379a00000000000000000000000000000000000000000000000000000000081526004016104d4906111c6565b60405180910390fd5b8060038190555050565b6000600180549050905090565b60045481565b610502610a6e565b73ffffffffffffffffffffffffffffffffffffffff16610520610608565b73ffffffffffffffffffffffffffffffffffffffff1614610576576040517f08c379a000000000000000000000000000000000000000000000000000000000815260040161056d906111c6565b60405180910390fd5b6105806000610ab8565b565b61058a610a6e565b73ffffffffffffffffffffffffffffffffffffffff166105a8610608565b73ffffffffffffffffffffffffffffffffffffffff16146105fe576040517f08c379a00000000000000000000000000000000000000000000000000000000081526004016105f5906111c6565b60405180910390fd5b8060058190555050565b60008060009054906101000a900473ffffffffffffffffffffffffffffffffffffffff16905090565b6004543414610641600454610b7c565b60405160200161065191906112ac565b604051602081830303815290604052906106a1576040517f08c379a00000000000000000000000000000000000000000000000000000000081526004016106989190611325565b60405180910390fd5b50600060405180604001604052803373ffffffffffffffffffffffffffffffffffffffff168152602001838152509050600181908060018154018082558091505060019003906000526020600020906002020160009091909190915060008201518160000160006101000a81548173ffffffffffffffffffffffffffffffffffffffff021916908373ffffffffffffffffffffffffffffffffffffffff1602179055506020820151816001019080519060200190610760929190610d2f565b50505034600260008282546107759190611376565b925050819055507ff5cb4ad482aa150d9e4585fceefa2bb1b20004332d194160b03500cdafc9c84642836040516020016107af91906113f2565b6040516020818303038152906040526040516107cc929190611418565b60405180910390a16003546107df6104e7565b1061096c5760006107ee610cdd565b905060006001828154811061080657610805611448565b5b906000526020600020906002020160000160009054906101000a900473ffffffffffffffffffffffffffffffffffffffff169050600061084461034a565b905060008273ffffffffffffffffffffffffffffffffffffffff168260405161086c9061149d565b60006040518083038185875af1925050503d80600081146108a9576040519150601f19603f3d011682016040523d82523d6000602084013e6108ae565b606091505b50509050806108f2576040517f08c379a00000000000000000000000000000000000000000000000000000000081526004016108e990611524565b60405180910390fd5b7f51f0fe61ad43dd119e9a4557c999c9ed421b3dfcaa9cd63488272e82afe9617d426001868154811061092857610927611448565b5b9060005260206000209060020201600101846040516109499392919061163a565b60405180910390a16000600281905550600160006109679190610db5565b505050505b5050565b60055481565b61097e610a6e565b73ffffffffffffffffffffffffffffffffffffffff1661099c610608565b73ffffffffffffffffffffffffffffffffffffffff16146109f2576040517f08c379a00000000000000000000000000000000000000000000000000000000081526004016109e9906111c6565b60405180910390fd5b600073ffffffffffffffffffffffffffffffffffffffff168173ffffffffffffffffffffffffffffffffffffffff161415610a62576040517f08c379a0000000000000000000000000000000000000000000000000000000008152600401610a59906116ea565b60405180910390fd5b610a6b81610ab8565b50565b600033905090565b60008183610a849190611739565b905092915050565b60008183610a9a919061176a565b905092915050565b60008183610ab091906117c4565b905092915050565b60008060009054906101000a900473ffffffffffffffffffffffffffffffffffffffff169050816000806101000a81548173ffffffffffffffffffffffffffffffffffffffff021916908373ffffffffffffffffffffffffffffffffffffffff1602179055508173ffffffffffffffffffffffffffffffffffffffff168173ffffffffffffffffffffffffffffffffffffffff167f8be0079c531659141344cd1fd0a4f28419497f9722a3daafe3b4186f6b6457e060405160405180910390a35050565b60606000821415610bc4576040518060400160405280600181526020017f30000000000000000000000000000000000000000000000000000000000000008152509050610cd8565b600082905060005b60008214610bf6578080610bdf906117f8565b915050600a82610bef9190611739565b9150610bcc565b60008167ffffffffffffffff811115610c1257610c11610ff5565b5b6040519080825280601f01601f191660200182016040528015610c445781602001600182028036833780820191505090505b5090505b60008514610cd157600182610c5d91906117c4565b9150600a85610c6c9190611841565b6030610c789190611376565b60f81b818381518110610c8e57610c8d611448565b5b60200101907effffffffffffffffffffffffffffffffffffffffffffffffffffffffffffff1916908160001a905350600a85610cca9190611739565b9450610c48565b8093505050505b919050565b600080444233604051602001610cf5939291906118db565b6040516020818303038152906040528051906020012060001c90506000610d1a6104e7565b82610d259190611841565b9050809250505090565b828054610d3b90611573565b90600052602060002090601f016020900481019282610d5d5760008555610da4565b82601f10610d7657805160ff1916838001178555610da4565b82800160010185558215610da4579182015b82811115610da3578251825591602001919060010190610d88565b5b509050610db19190610dd9565b5090565b5080546000825560020290600052602060002090810190610dd69190610df6565b50565b5b80821115610df2576000816000905550600101610dda565b5090565b5b80821115610e4057600080820160006101000a81549073ffffffffffffffffffffffffffffffffffffffff0219169055600182016000610e379190610e44565b50600201610df7565b5090565b508054610e5090611573565b6000825580601f10610e625750610e81565b601f016020900490600052602060002090810190610e809190610dd9565b5b50565b6000604051905090565b600080fd5b600080fd5b6000819050919050565b610eab81610e98565b8114610eb657600080fd5b50565b600081359050610ec881610ea2565b92915050565b600060208284031215610ee457610ee3610e8e565b5b6000610ef284828501610eb9565b91505092915050565b610f0481610e98565b82525050565b6000602082019050610f1f6000830184610efb565b92915050565b600073ffffffffffffffffffffffffffffffffffffffff82169050919050565b6000610f5082610f25565b9050919050565b610f6081610f45565b8114610f6b57600080fd5b50565b600081359050610f7d81610f57565b92915050565b600060208284031215610f9957610f98610e8e565b5b6000610fa784828501610f6e565b91505092915050565b610fb981610f45565b82525050565b6000602082019050610fd46000830184610fb0565b92915050565b600080fd5b600080fd5b6000601f19601f8301169050919050565b7f4e487b7100000000000000000000000000000000000000000000000000000000600052604160045260246000fd5b61102d82610fe4565b810181811067ffffffffffffffff8211171561104c5761104b610ff5565b5b80604052505050565b600061105f610e84565b905061106b8282611024565b919050565b600067ffffffffffffffff82111561108b5761108a610ff5565b5b61109482610fe4565b9050602081019050919050565b82818337600083830152505050565b60006110c36110be84611070565b611055565b9050828152602081018484840111156110df576110de610fdf565b5b6110ea8482856110a1565b509392505050565b600082601f83011261110757611106610fda565b5b81356111178482602086016110b0565b91505092915050565b60006020828403121561113657611135610e8e565b5b600082013567ffffffffffffffff81111561115457611153610e93565b5b611160848285016110f2565b91505092915050565b600082825260208201905092915050565b7f4f776e61626c653a2063616c6c6572206973206e6f7420746865206f776e6572600082015250565b60006111b0602083611169565b91506111bb8261117a565b602082019050919050565b600060208201905081810360008301526111df816111a3565b9050919050565b7f4a6f696e696e6720666565206973200000000000000000000000000000000000815250565b600081519050919050565b600081905092915050565b60005b83811015611240578082015181840152602081019050611225565b8381111561124f576000848401525b50505050565b60006112608261120c565b61126a8185611217565b935061127a818560208601611222565b80840191505092915050565b7f2077656900000000000000000000000000000000000000000000000000000000815250565b60006112b7826111e6565b600f820191506112c78284611255565b91506112d282611286565b60048201915081905092915050565b600081519050919050565b60006112f7826112e1565b6113018185611169565b9350611311818560208601611222565b61131a81610fe4565b840191505092915050565b6000602082019050818103600083015261133f81846112ec565b905092915050565b7f4e487b7100000000000000000000000000000000000000000000000000000000600052601160045260246000fd5b600061138182610e98565b915061138c83610e98565b9250827fffffffffffffffffffffffffffffffffffffffffffffffffffffffffffffffff038211156113c1576113c0611347565b5b828201905092915050565b7f2068617320656e74657265642074686520726166666c652e0000000000000000815250565b60006113fe8284611255565b9150611409826113cc565b60188201915081905092915050565b600060408201905061142d6000830185610efb565b818103602083015261143f81846112ec565b90509392505050565b7f4e487b7100000000000000000000000000000000000000000000000000000000600052603260045260246000fd5b50565b6000611487600083611217565b915061149282611477565b600082019050919050565b60006114a88261147a565b9150819050919050565b7f4661696c656420746f207769746864726177206d6f6e65792066726f6d20746860008201527f6520636f6e746163740000000000000000000000000000000000000000000000602082015250565b600061150e602983611169565b9150611519826114b2565b604082019050919050565b6000602082019050818103600083015261153d81611501565b9050919050565b7f4e487b7100000000000000000000000000000000000000000000000000000000600052602260045260246000fd5b6000600282049050600182168061158b57607f821691505b6020821081141561159f5761159e611544565b5b50919050565b60008190508160005260206000209050919050565b600081546115c781611573565b6115d18186611169565b945060018216600081146115ec57600181146115fe57611631565b60ff1983168652602086019350611631565b611607856115a5565b60005b838110156116295781548189015260018201915060208101905061160a565b808801955050505b50505092915050565b600060608201905061164f6000830186610efb565b818103602083015261166181856115ba565b90506116706040830184610efb565b949350505050565b7f4f776e61626c653a206e6577206f776e657220697320746865207a65726f206160008201527f6464726573730000000000000000000000000000000000000000000000000000602082015250565b60006116d4602683611169565b91506116df82611678565b604082019050919050565b60006020820190508181036000830152611703816116c7565b9050919050565b7f4e487b7100000000000000000000000000000000000000000000000000000000600052601260045260246000fd5b600061174482610e98565b915061174f83610e98565b92508261175f5761175e61170a565b5b828204905092915050565b600061177582610e98565b915061178083610e98565b9250817fffffffffffffffffffffffffffffffffffffffffffffffffffffffffffffffff04831182151516156117b9576117b8611347565b5b828202905092915050565b60006117cf82610e98565b91506117da83610e98565b9250828210156117ed576117ec611347565b5b828203905092915050565b600061180382610e98565b91507fffffffffffffffffffffffffffffffffffffffffffffffffffffffffffffffff82141561183657611835611347565b5b600182019050919050565b600061184c82610e98565b915061185783610e98565b9250826118675761186661170a565b5b828206905092915050565b6000819050919050565b61188d61188882610e98565b611872565b82525050565b60008160601b9050919050565b60006118ab82611893565b9050919050565b60006118bd826118a0565b9050919050565b6118d56118d082610f45565b6118b2565b82525050565b60006118e7828661187c565b6020820191506118f7828561187c565b60208201915061190782846118c4565b60148201915081905094935050505056fea2646970667358221220b5a32c367d83f3f89f279375afd0c16c2188471b3215a01c2700a5362473ba0364736f6c634300080c0033",
  "immutableReferences": {},
  "source": "// SPDX-License-Identifier: MIT\npragma solidity >=0.7.0 <0.9.0;\n\nimport \"@openzeppelin/contracts/utils/math/SafeMath.sol\";\nimport \"@openzeppelin/contracts/utils/Strings.sol\";\nimport \"@openzeppelin/contracts/access/Ownable.sol\";\n\ncontract Raffle is Ownable {\n    using SafeMath for uint256;\n    using Strings for uint256;\n    Player[] entries;\n    uint256 private prize;\n    uint256 public maxPlayers;\n    uint256 public joiningFee;\n    uint256 public gameFee;\n\n    event RaffleEnded(uint256 timestamp, string winner, uint256 amount);\n    event PlayerEntered(uint256 timestamp, string playerName);\n\n    struct Player {\n        address payable playerAddress;\n        string playerName;\n    }\n\n    constructor() {\n        maxPlayers = 5;\n        joiningFee = 1000000000000000000 wei;\n        gameFee = 5;\n    }\n\n    function changeMaxPlayers(uint256 newMaxPlayers) public onlyOwner {\n        maxPlayers = newMaxPlayers;\n    }\n\n    function changeJoiningFee(uint256 newJoiningFee) public onlyOwner {\n        joiningFee = newJoiningFee;\n    }\n\n    function changeGameFee(uint256 newGameFee) public onlyOwner {\n        gameFee = newGameFee;\n    }\n\n    function pickWinner() private view returns(uint256) {\n        uint256 random = uint256(keccak256(abi.encodePacked(block.difficulty, block.timestamp, msg.sender)));\n        uint256 index = random % participants();\n        return index;\n    }\n\n    function getCurrentPrize() public view returns(uint256) {\n        return prize.sub(prize.div(100).mul(gameFee));\n    }\n\n    function enter(string memory _playerName) public payable {\n        require(msg.value == joiningFee, string(bytes.concat(\"Joining fee is \", bytes(Strings.toString(joiningFee)), \" wei\")));\n\n        Player memory newPlayer = Player(payable(msg.sender), _playerName);\n        entries.push(newPlayer);\n        prize += msg.value;\n        emit PlayerEntered(block.timestamp, string(bytes.concat(bytes(_playerName), \" has entered the raffle.\")));\n\n        if (participants() >= maxPlayers) {\n            uint256 winnerIndex = pickWinner();\n            address winner = entries[winnerIndex].playerAddress;\n            uint256 finalPrize = getCurrentPrize();\n\n            (bool success, ) = (winner).call{value: finalPrize}(\"\"); \n            require(success, \"Failed to withdraw money from the contact\");\n\n            emit RaffleEnded(block.timestamp, entries[winnerIndex].playerName, finalPrize);\n            prize = 0;\n            delete entries;\n        }\n    }\n\n    function participants() public view returns(uint256) {\n        return entries.length;\n    }\n\n    function withdraw(address to) external payable onlyOwner {\n        uint256 balance = address(this).balance;\n        payable(to).transfer(balance);\n    }\n\n    fallback() external payable {}\n\n    receive() external payable {}\n}\n",
  "sourcePath": "/var/www/html/solidity-raffle/contracts/Raffle.sol",
  "compiler": {
    "name": "solc",
    "version": "0.8.12+commit.f00d7308.Emscripten.clang"
  },
  "schemaVersion": "3.4.6",
  "updatedAt": "2022-04-11T18:09:35.835Z",
  "networkType": "ethereum",
  "devdoc": {
    "kind": "dev",
    "methods": {
      "owner()": {
        "details": "Returns the address of the current owner."
      },
      "renounceOwnership()": {
        "details": "Leaves the contract without owner. It will not be possible to call `onlyOwner` functions anymore. Can only be called by the current owner. NOTE: Renouncing ownership will leave the contract without an owner, thereby removing any functionality that is only available to the owner."
      },
      "transferOwnership(address)": {
        "details": "Transfers ownership of the contract to a new account (`newOwner`). Can only be called by the current owner."
      }
    },
    "version": 1
  },
  "userdoc": {
    "kind": "user",
    "methods": {},
    "version": 1
  }
}